:0400000032EF00F0EB
:100008005282D9CF43F0DACF44F0F3CF45F0F4CFA2
:1000180046F00E0136BBE3EC01F00E0133AB0AD01B
:10002800339B630E426EC00E416E31EC03F0512AD1
:10003800374A382A0E0138A107D03891630E426E2C
:10004800C00E416E2CEC03F046C0F4FF45C0F3FF30
:1000580044C0DAFF43C0D9FF52921100B1EF02F059
:100068003F50D8B474D0000E516E67D00EC001F066
:10007800010E3E6E0D0E3C6E010E21D03E50010D5C
:100088000E0EF324D96E000EF420DA6E3E50010DE8
:10009800010EF324E16E000EF420E26EDFCFE7FFDD
:1000A8003E50010D010EF324D96E000EF420DA6ED5
:1000B800DF503C263E2A0B0E3E6449D0020E3D6EB0
:1000C80046D03E50010D0E0EF324D96E000EF420DA
:1000D800DA6E3E50010D010EF324E16E000EF4209D
:1000E800E26EDFCFE7FF000E406E000E3F6E000E9F
:1000F8003D6E3E50010D010EF324D96E000EF42022
:10010800DA6E3C50DE18D8A415D04E50FF0A0714FA
:10011800396E4F50FF0A08143A6E07C04EF008C0F7
:100128004FF0000E386E000E376E000E506E5CEC0D
:1001380002F00DD03BEC03F00AD03D50000AD8B4D1
:1001480095D7010AD8B49AD7030AD8B4BAD70A0EF1
:10015800516402D03BEC03F040EC03F01200000EB7
:10016800796E000E7A6E000E7B6E500E7C6E000E5D
:100178007D6E000E7E6E000E7F6E000E806EC00ECD
:10018800816E8268BE0E836EA80E846E000E856E28
:100198008668BC0E876EF00E886E000E0E01926F98
:1001A800000E9A6F000EA76F000EAF6F000EB46FAF
:1001B800000EBC6F000E916F000E996F000EA16FBC
:1001C800000EA66F000EAE6F000EB36F000EBB6F71
:1001D800000EC06F000E906F000E986F000EA06F9B
:1001E800000EA56F000EAD6F000EB26F000EBA6F55
:1001F800000EBF6F1A0E626F1A811A931A951A971A
:100208001A891A9B19911983198519971989199BA4
:10021800190E686F1C0E5A6F1B0E5B6F1D911D9394
:100228001D951D871D991D9B1C811C931C951C8762
:100238001C991C9B0F810F830F950F870F890F9BAC
:100248000C0E6E6F11811193118511871189119B05
:100258000E0E706F1200476E43D0F28E1200F28CB1
:100268000E01339B298B1200F28C0E0138912E81DE
:100278001200F28C0E0138952E851200F28C0E01B8
:1002880038992E891200F28C0E01389D2E8D12009D
:10029800F28C0E0138932E831200F28C0E013897DF
:1002A8002E871200F28C0E01389B2E8B1200F28CD6
:1002B8000E01389F2E8F1200F28C0E012C8B12002B
:1002C800F28C0E012C8F1200F28C0E012D8312007D
:1002D800F28C0E012D871200F28C0E012D8B12006C
:1002E8004750000AD8B4B9D7010AD8B4B8D7030A16
:1002F800D8B4BAD7010AD8B4CBD7070AD8B4B9D773
:10030800010AD8B4CAD7030AD8B4B8D7010AD8B4EE
:10031800C9D70F0AD8B4B7D7010AD8B4C8D7030ABF
:10032800D8B4CAD7010AD8B4CBD7070AD8B4CCD71F
:10033800010AD8B4CDD7030AD8A41200CDD7476E86
:100348002AD07D967D987D9A7D9C7D9E12007D9613
:100358007D987D9A7D9C7D8E12007D967D987D9AF4
:100368007D8C7D8E12007D967D987D8A7D8C7D8E1C
:1003780012007D967D887D8A7D8C7D8E12007D861B
:100388007D887D8A7D8C7D8E12007D967D987D9AF4
:100398007D9C7D9E12004750000AD8B4D2D7010A2E
:1003A800D8B4D5D7030AD8B4D8D7010AD8B4DBD77C
:1003B800070AD8B4DED7010AD8B4E1D7E6D73F5048
:1003C800D8A438D04050010D0E0EF324D96E000E7B
:1003D800F420DA6E36EC03F0DF6E4004D8A40FD0B8
:1003E8004050010D0E0EF324D96E000EF420DA6E83
:1003F8000D0EDE18D8A403D0010E406E1200405036
:10040800D8A404D00D0E0E18D8A40AD04004D8A43D
:100418000AD00F50D8B407D0CB0E0F18D8B403D0D9
:10042800000E406E1200402A0C0E40641200010EAD
:100438003F6E120036EC03F01200E10E4818471028
:10044800D8A404D0010E9B6E150E29D04B0E481867
:100458004710D8A404D0030E9B6E400E20D0800E07
:10046800471808E1250E4818D8A404D0060E9B6E3C
:10047800820E15D0600E471808E1090E4818D8A456
:1004880004D01A0E9B6E0A0E0AD0B00E471808E167
:10049800040E4818D8A404D0340E9B6E140E9A6E1D
:1004A800240E9D6E900E9C6E495008099E6E120097
:1004B8007C9080840250D8A403D00450A3EC01F0AF
:1004C800050E476E3A50F9EC02F00009D8B40FD087
:1004D80080A602D0010E01D0000EFF0A4C6E4C46D9
:1004E8004C464C4680504C18F70B4C18806E060E44
:1004F800476E3A50F9EC02F00009D8B412007CA417
:1005080002D0010E01D0000EFF0A4C6E4C464C463C
:100518007C504C18FB0B4C187C6E1200430E486E36
:10052800100E476E1CEC03F0630E486EC00E476E4B
:1005380022EC03F0E10E486E000E476E000E496E85
:1005480021EC02F09D9A0A0E2FEC01F0010E2FEC1F
:1005580001F0000E2FEC01F012007C0EF66E060E74
:10056800F76E000EF86E00EE4EF010EE04F0090083
:10057800F5CFEEFFE550E150FAE100EE01F0400E54
:10058800EE6AE806FDE1529052920001CCEF02F0CB
:10059800B3EC00F0E4EC02F092EC02F0010E486ECD
:1005A800200E476E0EEC03F0630E486EC00E476EC9
:1005B80027EC03F0020E2FEC01F034EC00F0FDD72D
:1005C800000E486E010E476E16EC03F079867984AA
:1005D8007982798080828080798A79887F8C7F820D
:1005E8007F807D807D827D8412004A6E47C048F0FE
:1005F800010E496E482A02D0D8904936482EFCD7B9
:1006080049504A144B6E4B50D8B402D0010E120018
:10061800000E1200000ED06E4850D26E47500309EB
:10062800CF6E12004850946E47502009956E120004
:100638004850D66E47508009D56E12004850D46E87
:1006480047C0D3FF12004850CE6E47C0CDFF1200FE
:100658004250CE6E41C0CDFF12004250D46E41C010
:10066800D3FF12000E0136ABFDD7985012008094CC
:0A0678007C801200FFFF01641200F5
:020000040020DA
:10000000FF0FFF0FFF0FFF0FFF0FFF0FFF0FFF0F80
:020000040030CA
:0C000000AADF7DF79FFFFFDFFFFFFFFF7F
:00000001FF
