:040000006AEF00F0B3
:100008004F82FACF39F0FBCF3AF0E9CF3BF0EACF95
:100018003CF0E1CF3DF0E2CF3EF0D9CF3FF0DACF70
:1000280040F0F3CF41F0F4CF42F0F6CF43F0F7CFF2
:1000380044F0F8CF45F0F5CF46F04FC047F050C038
:1000480048F051C049F052C04AF00E0136BBAEEC40
:1000580002F00E0133AB0AD0339B630E386EC00E2C
:10006800376E87EC04F04E2A2D4A2E2A0E0138A14D
:1000780007D03891630E386EC00E376E82EC04F0EC
:100088004AC052F049C051F048C050F047C04FF044
:1000980046C0F5FF45C0F8FF44C0F7FF43C0F6FF70
:1000A80042C0F4FF41C0F3FF40C0DAFF3FC0D9FFB0
:1000B8003EC0E2FF3DC0E1FF3CC0EAFF3BC0E9FFB4
:1000C8003AC0FBFF39C0FAFF4F921100A1EF03F0CD
:1000D8007C9080840250D8A403D004506CEC02F0C9
:1000E800050E00016A6F3050DCEC03F00009D8B44B
:1000F80010D080A602D0010E01D0000EFF0A000128
:100108006F6F6F476F476F4780506F19F70B6F1905
:10011800806E060E00016A6F3050DCEC03F00009B7
:10012800D8B40FD07CA402D0010E01D0000EFF0A73
:1001380000016F6F6F476F477C506F19FB0B6F198A
:100148007C6E29EC03F000016BBF25D06B5104E1F4
:100158007F0E6A5DD8A01FD0640E6A6F020E5BEC3A
:1001680003F043EC04F0640E00016A6F020E5BECCE
:1001780003F030EC04F0640E00016A6F020E5BECD1
:1001880003F01DEC04F0640E00016A6F020E5BECD4
:1001980003F00AEC04F029EC03F000016BBF06D071
:1001A8006B5124E1800E6A5DD8B01200640E6A6F4C
:1001B800030E5BEC03F043EC04F0640E00016A6F7D
:1001C800030E5BEC03F030EC04F0640E00016A6F80
:1001D800030E5BEC03F01DEC04F0640E00016A6F83
:1001E800030E5BEC03F00AEC04F012001200355029
:1001F800D8B474D0000E4E6E67D00EC001F0010E58
:10020800346E0D0E326E010E21D03450010D0E0EDB
:10021800F324D96E000EF420DA6E3450010D010E6D
:10022800F324E16E000EF420E26EDFCFE7FF3450D6
:10023800010D010EF324D96E000EF420DA6EDF50A2
:100248003226342A0B0E346449D0020E336E46D05F
:100258003450010D0E0EF324D96E000EF420DA6E20
:100268003450010D010EF324E16E000EF420E26E0D
:10027800DFCFE7FF000E366E000E356E000E336ED0
:100288003450010D010EF324D96E000EF420DA6EFD
:100298003250DE18D8A415D04B50FF0A07142F6E21
:1002A8004C50FF0A0814306E07C04BF008C04CF0E1
:1002B800000E2E6E000E2D6E000E4D6E6CEC00F0D2
:1002C8000DD091EC04F00AD03350000AD8B495D779
:1002D800010AD8B49AD7030AD8B4BAD70A0E4E641A
:1002E80002D091EC04F096EC04F01200000E796E46
:1002F800000E7A6E000E7B6E500E7C6E000E7D6EC8
:10030800000E7E6E000E7F6E000E806EC00E816E37
:100318008268BE0E836EA80E846E000E856E866897
:10032800BC0E876EF00E886E000E0E01926F000EE6
:100338009A6F000EA76F000EAF6F000EB46F000E1D
:10034800BC6F000E916F000E996F000EA16F000E2A
:10035800A66F000EAE6F000EB36F000EBB6F000EDF
:10036800C06F000E906F000E986F000EA06F000E09
:10037800A56F000EAD6F000EB26F000EBA6F000EC3
:10038800BF6F1A0E626F1A811A931A951A971A89F3
:100398001A9B19911983198519971989199B190E8F
:1003A800686F1C0E5A6F1B0E5B6F1D911D931D9578
:1003B8001D871D991D9B1C811C931C951C871C99CE
:1003C8001C9B0F810F830F950F870F890F9B0C0EB6
:1003D8006E6F11811193118511871189119B0E0E72
:1003E800706F120000016A6F43D0F28E1200F28C17
:1003F8000E01339B298B1200F28C0E0138912E814D
:100408001200F28C0E0138952E851200F28C0E0126
:1004180038992E891200F28C0E01389D2E8D12000B
:10042800F28C0E0138932E831200F28C0E0138974D
:100438002E871200F28C0E01389B2E8B1200F28C44
:100448000E01389F2E8F1200F28C0E012C8B120099
:10045800F28C0E012C8F1200F28C0E012D831200EB
:10046800F28C0E012D871200F28C0E012D8B1200DA
:1004780000016A51000AD8B4B8D7010AD8B4B7D76E
:10048800030AD8B4B9D7010AD8B4CAD7070AD8B466
:10049800B8D7010AD8B4C9D7030AD8B4B7D7010A5C
:1004A800D8B4C8D70F0AD8B4B6D7010AD8B4C7D7B2
:1004B800030AD8B4C9D7010AD8B4CAD7070AD8B426
:1004C800CBD7010AD8B4CCD7030AD8A41200CCD70A
:1004D80000016A6F2AD07D967D987D9A7D9C7D9ECD
:1004E80012007D967D987D9A7D9C7D8E12007D966A
:1004F8007D987D9A7D8C7D8E12007D967D987D8A73
:100508007D8C7D8E12007D967D887D8A7D8C7D8E8A
:1005180012007D867D887D8A7D8C7D8E12007D9679
:100528007D987D9A7D9C7D9E120000016A51000A8B
:10053800D8B4D1D7010AD8B4D4D7030AD8B4D7D7F6
:10054800010AD8B4DAD7070AD8B4DDD7010AD8B473
:10055800E0D7E5D73550D8A438D03650010D0E0E67
:10056800F324D96E000EF420DA6E8CEC04F0DF6E02
:100578003604D8A40FD03650010D0E0EF324D96ED0
:10058800000EF420DA6E0D0EDE18D8A403D0010E8A
:10059800366E12003650D8A404D00D0E0E18D8A40A
:1005A8000AD03604D8A40AD00F50D8B407D0CB0E3E
:1005B8000F18D8B403D0000E366E1200362A0C0E6F
:1005C80036641200010E356E12008CEC04F0120035
:1005D800E10E00016B196A11D8A404D0010E9B6EBC
:1005E800150E29D04B0E6B196A11D8A404D0030E2E
:1005F8009B6E400E20D0800E6A1908E1250E6B19FB
:10060800D8A404D0060E9B6E820E15D0600E6A190F
:1006180008E1090E6B19D8A404D01A0E9B6E0A0EB5
:100628000AD0B00E6A1908E1040E6B19D8A404D0D8
:10063800340E9B6E140E9A6E240E9D6E900E9C6E58
:1006480000016C5108099E6E12007F0E0C18D8B478
:1006580004D0800E0C18D8A406D0000E00016B6FD1
:10066800000E6A6F1200800E0C640FD00C5000014F
:100678006C6F6D6B6C1F6D1F6C4B6D2B800E6C253A
:100688006A6F000E6D216B6F12007F0E0C601200F6
:100698000C5000016C6F6D6B6C1F6D1F6C4B6D2BDC
:1006A8007F0E6C256A6F000E6D216B6F12000001C2
:1006B8006B6F0001D8906A316A6F6A51D8A40CD068
:1006C800010E6A6F09D0000E1200800E12006A51E6
:1006D800800F12006A5112006B51000AD8B4F3D788
:1006E800010AD8B4F2D7030AD8B4F1D7010AD8B4AA
:1006F800F1D7800E1200430E00016B6F100E6A6F67
:100708006FEC04F0630E00016B6FC00E6A6F76EC3D
:1007180004F0E10E00016B6F000E6A6F000E6C6F43
:10072800ECEC02F09D9A0A0EF6EC01F0010EF6ECE4
:1007380001F0000EF6EC01F01200280EF66E090E1C
:10074800F76E000EF86E00EE4BF010EE04F00900A4
:10075800F5CFEEFFE550E150FAE100EE60F00A0E49
:10076800EE6AE806FDE100EE01F0360EEE6AE806F4
:10077800FDE14F904F920001C2EF03F07AEC01F0D7
:10078800F4EC03F07FEC03F0010E00016B6F200E18
:100798006A6F5FEC04F0630E00016B6FC00E6A6F46
:1007A8007CEC04F0020EF6EC01F0FBEC00F0FDD757
:1007B80000016D6F6AC06BF0010E00016C6F6B2B4E
:1007C80002D0D8906C376B2FFCD700016C516D1597
:1007D8006E6F6E51D8B402D0010E1200000E1200D6
:1007E800000E00016B6F010E6A6F68EC04F07986E9
:1007F80079847982798080828080798A79887F8CEF
:100808007F827F807D807D827D84120000016C6FF5
:100818007990350EE82EFED700F000016C5156ECA9
:1008280004F000016B6F350EE82EFED700F07980DA
:10083800120000016C6F7992350EE82EFED700F099
:1008480000016C5156EC04F000016B6F350EE82E78
:10085800FED700F07982120000016C6F7994350E92
:10086800E82EFED700F000016C5156EC04F00001B0
:100878006B6F350EE82EFED700F079841200000168
:100888006C6F7996350EE82EFED700F000016C519A
:1008980056EC04F000016B6F350EE82EFED700F021
:1008A8007986120000016A6F959E6AC091FF94A034
:1008B800FED791501200000ED06E00016B51D26E1F
:1008C8006A510309CF6E120000016B51946E6A5190
:1008D8002009956E120000016B51D66E6A5180098D
:1008E800D56E120000016B51D46E6AC0D3FF12009E
:1008F80000016B51CE6E6AC0CDFF12003850CE6E2B
:1009080037C0CDFF12003850D46E37C0D3FF120065
:100918000E0136ABFDD79850120080947C801200EF
:06092800FFFF0164120054
:020000040020DA
:10000000FF0FFF0FFF0FFF0FFF0FFF0FFF0FFF0F80
:020000040030CA
:0C000000AADF7DF79FFFFFDFFFFFFFFF7F
:00000001FF
